:020000040800F2
:10000000FC03002025010008950100089501000867
:100010009501000895010008950100080000000006
:100020000000000000000000000000009501000832
:1000300095010008000000009501000895010008E6
:100040009501000895010008950100089501000838
:100050009501000895010008950100089501000828
:100060009501000895010008950100089501000818
:100070009501000895010008950100089501000808
:100080009501000895010008950100080000000096
:1000900000000000000000000000000095010008C2
:1000A00095010008950100089501000895010008D8
:1000B00095010008950100089501000895010008C8
:1000C00095010008950100089501000895010008B8
:1000D00095010008950100089501000895010008A8
:1000E0009501000895010008950100080000000036
:1000F0000000000000000000000000000000000000
:1001000000000000000000000000000000000000EF
:1001100000000000000000009501000895010008A3
:100120005FF808F180B582B000AF40F68003C0F6FA
:1001300000037B6040F20003C2F200033B600BE06F
:100140007B681A683B681A603B6803F104033B60F4
:100150007B6803F104037B603A6840F20003C2F25B
:1001600000039A42ECD3094809494FF00002884243
:10017000B8BF40F8042BFFF6FAAF00F00FF800F01C
:1001800041FA07F10807BD4680BD000000000020CD
:100190000000002080B400AFFEE700BF80B500AFD4
:1001A0004FF48053C4F202034FF48052C4F20202AF
:1001B000126842F001021A604FF48052C4F2020247
:1001C0004FF48053C4F2020359684FF00003CFF696
:1001D000FF030B4053604FF48053C4F202034FF40B
:1001E0008052C4F20202126822F0847222F4803239
:1001F0001A604FF48053C4F202034FF48052C4F2E9
:100200000202126822F480221A604FF48053C4F272
:1002100002034FF48052C4F20202526822F4FE023A
:100220005A604FF48053C4F202034FF41F029A60E5
:100230004FF48053C4F202034FF00002DA6200F080
:1002400009F84FF46D43CEF200034FF000629A605C
:1002500080BD00BF80B500AF00F002F880BD00BFD8
:1002600080B483B000AF4FF000037B604FF0000319
:100270003B604FF48053C4F202034FF48052C4F247
:100280000202126842F480321A604FF48053C4F2C2
:1002900002031B6803F400333B607B6803F1010336
:1002A0007B603B68002B03D17B68B3F5A06FECD17A
:1002B0004FF48053C4F202031B6803F40033002B95
:1002C00003D04FF001033B6002E04FF000033B60BE
:1002D0003B68012B6DD14FF48053C4F202034FF4FD
:1002E0008052C4F2020252685A604FF48053C4F242
:1002F00002034FF48052C4F2020252685A604FF473
:100300008053C4F202034FF48052C4F202025268D6
:100310005A604FF48053C4F202034FF48052C4F287
:100320000202526822F47C125A604FF48053C4F2E5
:1003300002034FF48052C4F20202526842F498124F
:100340005A604FF48053C4F202034FF48052C4F257
:100350000202126842F080721A6000BF4FF48053AC
:10036000C4F202031B6803F00073002BF6D04FF4B5
:100370008053C4F202034FF48052C4F20202526866
:1003800022F003025A604FF48053C4F202034FF488
:100390008052C4F20202526842F002025A6000BF68
:1003A0004FF48053C4F202035B6803F00C03082B84
:1003B000F6D107F10C07BD4680BC704780B489B008
:1003C00000AF786039604FF00003FB614FF000032D
:1003D0003B614FF00003BB614FF00003FB604FF047
:1003E00000037B614FF00003BB603B68DB7803F0E8
:1003F0000F03FB613B68DB7803F01003002B04D094
:100400003B689B78FA691343FB613B681B88DBB24E
:10041000002B4ED07B681B687B614FF00003BB61F3
:1004200041E0BB694FF0010202FA03F3FB603B6855
:100430001B881A46FB6813403B613A69FB689A4285
:100440002DD1BB694FEA8303FB60FB684FF00F02BD
:1004500002FA03F3BB60BB686FEA03037A691340D7
:100460007B61FB68FA6902FA03F37A6913437B61E3
:100470003B68DB78282B07D1BB694FF0010202FAF9
:1004800003F27B685A610AE03B68DB78482B06D1AF
:10049000BB694FF0010202FA03F27B681A61BB6983
:1004A00003F10103BB61BB69072BBAD97B687A6989
:1004B0001A603B681B88FF2B53D97B685B687B61A4
:1004C0004FF00003BB6146E0BB6903F108034FF046
:1004D000010202FA03F3FB603B681B881A46FB68C3
:1004E00013403B613A69FB689A4230D1BB694FEADD
:1004F0008303FB60FB684FF00F0202FA03F3BB605B
:10050000BB686FEA03037A6913407B61FB68FA6991
:1005100002FA03F37A6913437B613B68DB78282B8B
:1005200008D1BB6903F108034FF0010202FA03F29C
:100530007B685A613B68DB78482B08D1BB6903F1C3
:1005400008034FF0010202FA03F27B681A61BB69EB
:1005500003F10103BB61BB69072BB5D97B687A69DD
:100560005A6007F12407BD4680BC704780B483B051
:1005700000AF78607B684FF6FF721A807B684FF09F
:1005800002029A707B684FF00402DA7007F10C07E0
:10059000BD4680BC704700BF80B485B000AF7860B6
:1005A0000B467B804FF00003FB737B689A687B8867
:1005B0001340002B03D04FF00103FB7302E04FF018
:1005C0000003FB73FB7B184607F11407BD4680BC94
:1005D000704700BF80B483B000AF786013460A460E
:1005E0007A807B707B78002B03D07A887B681A61D5
:1005F00002E07A887B685A6107F10C07BD4680BC2F
:10060000704700BF80B582B000AF00F0BDF800F0C9
:10061000FDF800F07DF80346FB71FB79184600F009
:100620002BF8F6E790B400AF03464FF0000401E06A
:1006300004F101049C42FBDB4FF0000401E004F1F3
:10064000010440F289139C42F9DDBD4690BC70471D
:1006500090B400AF03464FF0000401E004F1010440
:100660009C42FBDB4FF0000401E004F10104C42CC8
:10067000FBDDBD4690BC704790B583B000AF03462C
:10068000FB714FF0000000F019F84FF000040BE090
:10069000FB7903F00103184600F010F8FB794FEAEC
:1006A0005303FB7104F10104072CF1DD4FF001004D
:1006B00000F004F807F10C07BD4690BD80B582B08C
:1006C00000AF78607B68DBB24FF40060C4F20100D9
:1006D0004FF400711A46FFF77DFF4FF00100FFF75E
:1006E000A1FF07F10807BD4680BD00BF80B500AF80
:1006F0004FF40060C4F201004FF48061FFF74CFF3B
:100700000346002B14BF00230123DBB2184680BD33
:1007100080B582B000AF4FF00003FB7000BFFFF761
:10072000E5FF0346002BFAD04FF00100FFF790FFE2
:100730004FF00100FFF776FF4FF000037B6019E0F8
:100740004FF40060C4F201004FF48061FFF724FF12
:1007500003461A467B6802FA03F3DAB2FB781343C6
:10076000DBB2FB704FF00100FFF75CFF7B6803F129
:1007700001037B607B68072BE2DDFB78184607F1FD
:100780000807BD4680BD00BF80B582B000AF4FF006
:1007900004004FF0010100F049F807F10403184686
:1007A000FFF7E4FE4FF00203BB714FF00103BB8083
:1007B0004FF00403FB7107F104034FF40060C4F22F
:1007C00001001946FFF7FAFD4FF48063BB804FF03C
:1007D0000403FB7107F104034FF40060C4F201004D
:1007E0001946FFF7EBFD4FF40073BB804FF0100389
:1007F000FB7107F104034FF40060C4F201001946D5
:10080000FFF7DCFD07F10807BD4680BD80B500AFEE
:1008100000BF4FF40060C4F201004FF00101FFF788
:10082000BBFE0346002BF4D080BD00BF80B483B074
:1008300000AF78600B46FB70FB78002B0CD04FF4B8
:100840008053C4F202034FF48052C4F20202916951
:100850007A680A439A610DE04FF48053C4F20203B0
:100860004FF48052C4F2020291697A686FEA020280
:100870000A409A6107F10C07BD4680BC704700BF73
:0400000508000000EF
:00000001FF
