:020000040800F2
:10000000FC03002025010008950100089501000867
:100010009501000895010008950100080000000006
:100020000000000000000000000000009501000832
:1000300095010008000000009501000895010008E6
:100040009501000895010008950100089501000838
:100050009501000895010008950100089501000828
:100060009501000895010008950100089501000818
:100070009501000895010008950100089501000808
:100080009501000895010008950100080000000096
:1000900000000000000000000000000095010008C2
:1000A00095010008950100089501000895010008D8
:1000B00095010008950100089501000895010008C8
:1000C00095010008950100089501000895010008B8
:1000D00095010008950100089501000895010008A8
:1000E0009501000895010008950100080000000036
:1000F0000000000000000000000000000000000000
:1001000000000000000000000000000000000000EF
:1001100000000000000000009501000895010008A3
:100120005FF808F180B582B000AF40F6E053C0F64A
:1001300000037B6040F20003C2F200033B600BE06F
:100140007B681A683B681A603B6803F104033B60F4
:100150007B6803F104037B603A6840F20003C2F25B
:1001600000039A42ECD3094809494FF00002884243
:10017000B8BF40F8042BFFF6FAAF00F00FF800F01C
:1001800041FA07F10807BD4680BD000000000020CD
:100190000000002080B400AFFEE700BF80B500AFD4
:1001A0004FF48053C4F202034FF48052C4F20202AF
:1001B000126842F001021A604FF48052C4F2020247
:1001C0004FF48053C4F2020359684FF00003CFF696
:1001D000FF030B4053604FF48053C4F202034FF40B
:1001E0008052C4F20202126822F0847222F4803239
:1001F0001A604FF48053C4F202034FF48052C4F2E9
:100200000202126822F480221A604FF48053C4F272
:1002100002034FF48052C4F20202526822F4FE023A
:100220005A604FF48053C4F202034FF41F029A60E5
:100230004FF48053C4F202034FF00002DA6200F080
:1002400009F84FF46D43CEF200034FF000629A605C
:1002500080BD00BF80B500AF00F002F880BD00BFD8
:1002600080B483B000AF4FF000037B604FF0000319
:100270003B604FF48053C4F202034FF48052C4F247
:100280000202126842F480321A604FF48053C4F2C2
:1002900002031B6803F400333B607B6803F1010336
:1002A0007B603B68002B03D17B68B3F5A06FECD17A
:1002B0004FF48053C4F202031B6803F40033002B95
:1002C00003D04FF001033B6002E04FF000033B60BE
:1002D0003B68012B6DD14FF48053C4F202034FF4FD
:1002E0008052C4F2020252685A604FF48053C4F242
:1002F00002034FF48052C4F2020252685A604FF473
:100300008053C4F202034FF48052C4F202025268D6
:100310005A604FF48053C4F202034FF48052C4F287
:100320000202526822F47C125A604FF48053C4F2E5
:1003300002034FF48052C4F20202526842F498124F
:100340005A604FF48053C4F202034FF48052C4F257
:100350000202126842F080721A6000BF4FF48053AC
:10036000C4F202031B6803F00073002BF6D04FF4B5
:100370008053C4F202034FF48052C4F20202526866
:1003800022F003025A604FF48053C4F202034FF488
:100390008052C4F20202526842F002025A6000BF68
:1003A0004FF48053C4F202035B6803F00C03082B84
:1003B000F6D107F10C07BD4680BC704780B489B008
:1003C00000AF786039604FF00003FB614FF000032D
:1003D0003B614FF00003BB614FF00003FB604FF047
:1003E00000037B614FF00003BB603B68DB7803F0E8
:1003F0000F03FB613B68DB7803F01003002B04D094
:100400003B689B78FA691343FB613B681B88DBB24E
:10041000002B4ED07B681B687B614FF00003BB61F3
:1004200041E0BB694FF0010202FA03F3FB603B6855
:100430001B881A46FB6813403B613A69FB689A4285
:100440002DD1BB694FEA8303FB60FB684FF00F02BD
:1004500002FA03F3BB60BB686FEA03037A691340D7
:100460007B61FB68FA6902FA03F37A6913437B61E3
:100470003B68DB78282B07D1BB694FF0010202FAF9
:1004800003F27B685A610AE03B68DB78482B06D1AF
:10049000BB694FF0010202FA03F27B681A61BB6983
:1004A00003F10103BB61BB69072BBAD97B687A6989
:1004B0001A603B681B88FF2B53D97B685B687B61A4
:1004C0004FF00003BB6146E0BB6903F108034FF046
:1004D000010202FA03F3FB603B681B881A46FB68C3
:1004E00013403B613A69FB689A4230D1BB694FEADD
:1004F0008303FB60FB684FF00F0202FA03F3BB605B
:10050000BB686FEA03037A6913407B61FB68FA6991
:1005100002FA03F37A6913437B613B68DB78282B8B
:1005200008D1BB6903F108034FF0010202FA03F29C
:100530007B685A613B68DB78482B08D1BB6903F1C3
:1005400008034FF0010202FA03F27B681A61BB69EB
:1005500003F10103BB61BB69072BB5D97B687A69DD
:100560005A6007F12407BD4680BC704780B483B051
:1005700000AF78607B684FF6FF721A807B684FF09F
:1005800002029A707B684FF00402DA7007F10C07E0
:10059000BD4680BC704700BF80B485B000AF7860B6
:1005A0000B467B804FF00003FB737B689A687B8867
:1005B0001340002B03D04FF00103FB7302E04FF018
:1005C0000003FB73FB7B184607F11407BD4680BC94
:1005D000704700BF80B483B000AF786013460A460E
:1005E0007A807B707B78002B03D07A887B681A61D5
:1005F00002E07A887B685A6107F10C07BD4680BC2F
:10060000704700BF80B584B000AF00F031FB00F050
:100610000BFB4FF00003FB604FF00003BB604FF09B
:1006200000037B604FF000033B600AE0F868B968A4
:100630007A6800F04FF800F099FA3B6803F1010383
:100640003B603B68002BF1DD24E07B68642B0AD122
:10065000BB6803F10103BB604FF000037B604FF008
:10066000280000F0A3FABB683C2B06D1FB6803F11D
:100670000103FB604FF00003BB607B6803F10103E3
:100680007B60F868B9687A6800F024F84FF00700DA
:1006900000F08CFA4FF40060C4F201004FF0010149
:1006A000FFF77AFF0346002BCFD000F05FFA4FF040
:1006B00000033B600AE0F868B9687A6800F00AF85D
:1006C00000F054FA3B6803F101033B603B68002BE8
:1006D000F1DD9EE780B584B000AFF860B9607A6064
:1006E0004FF0010000F002F94FF0020000F05EFA56
:1006F000F86800F039F80346DBB2184600F086F9D6
:10070000F86800F04DF80346DBB2184600F07EF9B9
:100710004FF03A0000F07AF9B86800F025F8034687
:10072000DBB2184600F072F9B86800F039F80346F9
:10073000DBB2184600F06AF94FF03A0000F066F9B3
:10074000786800F011F80346DBB2184600F05EF955
:10075000786800F025F80346DBB2184600F056F939
:1007600007F11007BD4680BD80B485B000AF78604A
:100770007A6846F26763C6F2666383FB02134FEA48
:10078000A3014FEAE273CB1ADBB203F13003FB7330
:10079000FB7B184607F11407BD4680BC704700BFBD
:1007A00080B485B000AF7860796846F26763C6F2BE
:1007B000666383FB01234FEAA3024FEAE173D21A77
:1007C00013464FEA83039B184FEA4303CA1AD3B276
:1007D00003F13003FB73FB7B184607F11407BD469A
:1007E00080BC704780B582B000AF78607B68DBB2B8
:1007F0004FF48050C4F201004FF020011A46FFF779
:10080000E9FE07F10807BD4680BD00BF80B500AF17
:100810004FF48050C4F201004FF010014FF001027C
:10082000FFF7D8FE4FF0010000F080F94FF4805040
:10083000C4F201004FF010014FF00002FFF7CAFEB2
:100840004FF0010000F072F980BD00BF80B582B0AA
:1008500000AF0346FB714FF00000FFF7C3FFFB79C9
:100860004FEA1313DBB203F00103DBB24FF4805005
:10087000C4F201004FF001011A46FFF7ABFEFB790D
:100880004FEA5313DBB203F00103DBB24FF48050A5
:10089000C4F201004FF002011A46FFF79BFEFB79FC
:1008A0004FEA9313DBB203F00103DBB24FF4805045
:1008B000C4F201004FF004011A46FFF78BFEFB79EA
:1008C0004FEAD313DBB24FF48050C4F201004FF073
:1008D00008011A46FFF77EFEFFF798FF4FF025004C
:1008E00000F024F907F10807BD4680BD80B582B04D
:1008F00000AF0346FB714FF00000FFF773FFFB7979
:100900004FEA1313DBB203F00103DBB24FF4805064
:10091000C4F201004FF001011A46FFF75BFEFB79BC
:100920004FEA5313DBB203F00103DBB24FF4805004
:10093000C4F201004FF002011A46FFF74BFEFB79AB
:100940004FEA9313DBB203F00103DBB24FF48050A4
:10095000C4F201004FF004011A46FFF73BFEFB7999
:100960004FEAD313DBB24FF48050C4F201004FF0D2
:1009700008011A46FFF72EFEFFF748FFFB7903F048
:100980000103DBB24FF48050C4F201004FF00101CB
:100990001A46FFF71FFEFB794FEA5303DBB203F061
:1009A0000103DBB24FF48050C4F201004FF00201AA
:1009B0001A46FFF70FFEFB794FEA9303DBB203F011
:1009C0000103DBB24FF48050C4F201004FF0040188
:1009D0001A46FFF7FFFDFB794FEAD303DBB203F0C2
:1009E0000103DBB24FF48050C4F201004FF0080164
:1009F0001A46FFF7EFFDFFF709FF4FF0250000F063
:100A000095F807F10807BD4680BD00BF80B582B0EC
:100A100000AF0346FB714FF00100FFF7E3FEFB79E7
:100A20004FEA1313DBB203F00103DBB24FF4805043
:100A3000C4F201004FF001011A46FFF7CBFDFB792C
:100A40004FEA5313DBB203F00103DBB24FF48050E3
:100A5000C4F201004FF002011A46FFF7BBFDFB791B
:100A60004FEA9313DBB203F00103DBB24FF4805083
:100A7000C4F201004FF004011A46FFF7ABFDFB7909
:100A80004FEAD313DBB24FF48050C4F201004FF0B1
:100A900008011A46FFF79EFDFFF7B8FEFB7903F049
:100AA0000103DBB24FF48050C4F201004FF00101AA
:100AB0001A46FFF78FFDFB794FEA5303DBB203F0D1
:100AC0000103DBB24FF48050C4F201004FF0020189
:100AD0001A46FFF77FFDFB794FEA9303DBB203F081
:100AE0000103DBB24FF48050C4F201004FF0040167
:100AF0001A46FFF76FFDFB794FEAD303DBB203F031
:100B00000103DBB24FF48050C4F201004FF0080142
:100B10001A46FFF75FFDFFF779FE4FF0250000F062
:100B200005F807F10807BD4680BD00BF90B400AFCF
:100B300003464FF0000413E000BF00BF00BF00BF3A
:100B400000BF00BF00BF00BF00BF00BF00BF00BFAD
:100B500000BF00BF00BF00BF00BF00BF04F1010421
:100B60009C42E9DBBD4690BC704700BF80B500AF3A
:100B700000BF4FF40060C4F201004FF00101FFF725
:100B80000BFD0346002BF4D003E04FF0020000F011
:100B90000DF84FF40060C4F201004FF00101FFF7BF
:100BA000FBFC0346002BF0D100BF80BD80B400AF3A
:100BB0000346012B02D903F1FF339BB24FF480525D
:100BC000C4F2000245F6BF5111854FF48052C4F2C1
:100BD000000293854FF48053C4F200034FF00002EB
:100BE0009A844FF48053C4F200034FF001029A82BA
:100BF0004FF48053C4F200034FF48052C4F2000259
:100C0000128892B242F0090292B21A8000BF4FF4E9
:100C10008053C4F200031B889BB203F00103002B36
:100C2000F5D1BD4680BC704780B582B000AF4FF0B3
:100C300004004FF0010100F07FF807F104031846AB
:100C4000FFF794FC4FF00203BB714FF00103BB8030
:100C50004FF00403FB7107F104034FF40060C4F28A
:100C600001001946FFF7AAFB07F10807BD4680BD42
:100C700080B582B000AF4FF010004FF0010100F0DE
:100C80005BF84FF010004FF0010100F07FF84FF0DB
:100C90000203BB714FF03F03BB804FF01003FB71A9
:100CA00007F104034FF48050C4F201001946FFF726
:100CB00085FB4FF48050C4F201004FF010014FF05B
:100CC0000002FFF787FC43F69820FFF72FFF4FF055
:100CD0003000FFF7BBFD41F20400FFF727FF4FF0A4
:100CE0003000FFF7B3FD4FF06400FFF71FFF4FF038
:100CF0003000FFF7ABFD4FF02000FFF7A7FD4FF0EE
:100D00002800FFF7F3FD4FF00800FFF7EFFD4FF06D
:100D10000100FFF7EBFD4FF4FA60FFF707FF4FF01C
:100D20000600FFF7E3FD4FF00F00FFF7DFFD07F1CF
:100D30000807BD4680BD00BF80B483B000AF7860B7
:100D40000B46FB70FB78002B0CD04FF48053C4F2A1
:100D500002034FF48052C4F2020291697A680A4396
:100D60009A610DE04FF48053C4F202034FF48052B5
:100D7000C4F2020291697A686FEA02020A409A613B
:100D800007F10C07BD4680BC704700BF80B483B03C
:100D900000AF78600B46FB70FB78002B0CD04FF453
:100DA0008053C4F202034FF48052C4F20202D169AC
:100DB0007A680A43DA610DE04FF48053C4F202030B
:100DC0004FF48052C4F20202D1697A686FEA0202DB
:100DD0000A40DA6107F10C07BD4680BC704700BFCE
:0400000508000000EF
:00000001FF
